:02000000852C4D
:0E000600213083120313FD00FD0B07280800B4
:06001400000000000800DE
:10001A000F3083120313FC004730FD00FD0B132839
:0A002A00FC0B132800000000080082
:1000340083160313B61B21288312881323288312E3
:1000440088178316361B2928831208132B2883123A
:1000540008178316B61A312883128812332883129C
:1000640088168316361A3928831208123B288312FD
:10007400081659183F2808154028081188150A2021
:1000840088118316B6194928831288134B288312C2
:10009400881783163619512883120813532883129C
:1000A40008178316B6185928831288125B288312FE
:1000B400881683163618612883120812632883125F
:1000C40008165918672808156828081188150A2081
:0E00D4008811591C6F280D2070280320080089
:1000E20083120313F801F9011030FC00710DF80DB1
:1000F200F90D7408F8027508031C750FF90203184C
:1001020089287408F80775080318750FF907031092
:0A011200F00DF10DFC0B772808003A
:08011C00FA1FF2130030080085
:0E012400F201F101F001F801F30100300800D2
:100132007B15FB1FA3280130F300F201F101F0014E
:08014200FA0DF20CFF30080079
:10014A00FB14FB1FAF28FF30F300F200F100F000B0
:08015A00FA0DF20CFF30080061
:0E0162008312031358088A0057088200080011
:1001700083120313EF0105306F020318C8286F08BC
:10018000831634078400203080008312EF0ABB28D6
:100190006F0883163407840080018312EF036F0811
:1001A00083163407B5000A30F400F5013208F00078
:1001B0003308F10071207808F0007908F100303040
:1001C000F007831635088400700880000A30F400B8
:1001D000F5013208F0003308F10071207008831631
:1001E000B2007108B30000307106031DF928003019
:1001F0007006031DFC28FF288312EF03CF28080098
:100200007B14FB1F0B29F201FA1FFF30F200F100F3
:0A021000F000FA0DF20CFF300800B8
:10021A00A0017208031D22297108F2007008F1007A
:10022A00F001A0157208031D22297108F200F101DC
:10023A00A01120167208031930292008F302031DA1
:10024A00031C34290310F21B3829F00DF10DF20DAD
:10025A00F30B282934290130FC0092203B29023073
:0E026A00FC0099203B290430FC008E20080087
:100278008312031359106F088316B6001A205914F5
:0202880008006C
:06028A00FB15FF30080027
:1002900083120313FB01FA01F9018030F800F10C1D
:1002A000F00C031C5C297408F90775080318750F16
:1002B000FA070318FB0A0310F01F64297408FA07F1
:1002C00075080318750FFB07FB0CFA0CF90CF80CFA
:1002D000031C4F297B08F3007A08F2007908F1002B
:0602E0007808F0000800A0
:1002E6004130831203139F00CE3083169F000130E6
:0402F6008500080077
:1002FA0083120313FB017308031D77080319D4291A
:10030A0072087606FA007708F3077E30031C9129F3
:10031A00F3020318D7299429F302031CDA29720875
:10032A00F8007108FC007008FD00F817F6170310B2
:10033A00F201F101F0011830A0007D1CAE29740809
:10034A00F00775080318750FF10776080318760F7A
:10035A00F207F20CF10CF00CF80CFC0CFD0C03107B
:10036A00A00BA229F21BBE29F80DF00DF10DF20D1A
:10037A00F3037B1B701CD029F81FD029F00A03193C
:10038A00F10A0319F20A031DD029F20CF10CF00C40
:10039A00F30A0319D729FA1FF2130030DC290130B6
:1003AA009220DC290230A520DC29043099200000A3
:0203BA00080039
:1003BC0083120313ED01EE0168088316B00083125B
:1003CC0069088316B100803083126906F000803012
:1003DC007002031DF329003068020318042A01304F
:1003EC00ED000030EE006808003C8316B00083126C
:1003FC006908031C013E8316B101B1028316300853
:10040C00B2003108B30083126A088316B400B82016
:10041C00063083120313EB000030EC006C08003C38
:10042C00031D1A2A6B08003C0318352A6B086A074F
:10043C00F20001306B02F0000030031C013E6C0234
:10044C00F10070086A0784000008F000720884004C
:10045C00700880000130EB02031CEC03142A6A08BC
:10046C008400203080006D086E040319532AEB01C0
:10047C00EC016B086A0784000008203A031D4A2A25
:10048C00EB0A0319EC0A3F2A0130EB02031CEC03C4
:0C049C006B086A0784002D308000080007
:1004A800831203131F151F1D5A2A572A1E08F1000D
:0E04B800F00183161E08F0040030F104080065
:1004C600831203137008F8007108F000F101F201BD
:1004D600F301FB01FC019630F300FA017008F1000C
:0C04E6007808F000F801F2010D21080078
:1004F20083120313E401E5016808F0006908F100C2
:100502000A30F4000030F500482165087102031D2D
:100512008C2A64087002031C922AE40A0319E50A71
:100522007D2AE601E7016808F0006908F1000A3057
:10053200F4000030F500482167087102031DA32A68
:1005420066087002031CA92AE60A0319E70A942A1C
:0205520008009F
:1005540083160313881108110812881208138813CC
:1005640083128811081188130813881208120D20A9
:100574000D200D208816081688150A2088110D20D4
:1005840088150A2088110D2088150A2088110D204D
:10059400081288150A2088110D2088150A20881150
:1005A4008812881788150A2088110D2088130816C8
:1005B40088150A208811081288150A2088110D2030
:1005C40088150A208811081688150A2088110D201C
:1005D400081288150A208811881708178816081623
:0C05E40088150A2088110D205914080009
:1005F0000A2B803083120313E8001D2BC030E80063
:100600001D2B9430E8001D2BD430E8001D2B8030CA
:10061000E8001D2B831203136808013A0319F92A15
:100620006808023A0319FE2A6808033A0319012BE5
:100630006808043A0319042B072B6903F0006808C3
:10064000F0077008E80070088316B6001A205910E9
:10065000EB016B086A07840000080319372B6B084D
:100660006A0784000008EF003C21EB0A292B59148B
:02067000080080
:10067200B1208A110A128000840AD70A0319D80A03
:08068200F003031D392B0800F1
:10068A0083120313E901EA016808F2006808F3001B
:10069A00720884000008203A031D582B69086A046E
:1006AA00031D582B652B0130E9000030EA0072085F
:1006BA0084000008F0007308840070088000F30AC0
:1006CA007208F100F20A710884000008003A031D5A
:0806DA004D2B6808F000080038
:1006E200831203137408003A031D8C2B7508003A19
:1006F200031D8C2B7608003A031D8C2B7708003AD9
:10070200031D8C2BFF30F000FF30F1007F30F20030
:10071200FF30F300272C83120313770803191B2CD5
:10072200730803191E2C720876068039FA00F21734
:10073200F617A0017208F8007108FC007008FD00AD
:100742007408FD027508031C750FFC027608031C71
:10075200760FF802F801FC01FD01031CB72B031010
:10076200F20CF10CF00CF80C0130A0007708F30247
:10077200031CC12B7E302007F3070318212CC62B44
:100782007E302007F307031C242C1830FA07FD0DD6
:10079200FC0DF80DF00DF10DF20DA00D7408F00234
:1007A2007508031C750FF1027608031C760FF2021E
:1007B200760DA004201CDF2B7D14EA2B7408F007B1
:1007C20075080318750FF10776080318760AF20701
:1007D2007D10FA031F307A05031DC82B7B1B7D1C7D
:1007E200112C0310F00DF10DF20DA00D7408F002A2
:1007F2007508031C750FF1027608031C760FF202CE
:10080200760D20040139FD070318FC0A0319F80AC2
:10081200031D112CF80CFC0CFD0CF30A0319212CFE
:10082200FA1FF8137808F2007C08F1007D08F00046
:100832000030262C01304521262C02309220262C15
:0E0842000430A520262C083099200000080064
:1008500083120313FB0173080319652C7208FA0055
:10086000F2178E30F302F31F682CF309F30A0830F5
:100870007302031C4B2CF300F10D7208F100F2011E
:1008800008307302031C4B2CF300F10DF1017308C7
:10089000031D0310532C73080319532C0310F20C7F
:1008A000F10CF30B4E2C7B1B711C5D2C031C5D2C7F
:1008B000F10A0319F20AF21B742CFA1F772CF209C1
:1008C000F109F10A0319F20A772CF201F101772CF0
:1008D0007B14FB1F7A2CF201FA1F7A2CFF30F200F6
:1008E000F100FA0DF20C7A2C0130FC007C2C003067
:1008F000FC007C2CFF30FC00FC080319802C00213C
:0A0900007108F0007208F100080011
:10090A005025AA2201308316B6001A200C3083160D
:10091A00B6001A200130E8000130E9003D30EA0053
:10092A00F822A030E8008630E900792201308316E7
:10093A00B6001A200C308316B6001A2073215422EE
:10094A00F4308312E8000130E90079225422700859
:10095A008312DE007108DF006322F630F4002830CB
:10096A00F5001C30F6008130F7007D217008DA00AE
:10097A007108DB007208DC007308DD000030F40047
:10098A000030F5002030F6008230F700712370083D
:10099A00E0007108E1007208E2007308E30028240D
:1009AA007008E8007108E900A030EA00DE21A030F2
:1009BA00E80045230130E8000130E9002130EA006F
:1009CA00F8220130E8000F30E900A030EA00F822EE
:1009DA00E830E8000330E90079220130E80001300C
:1009EA00E9004930EA00F8220130E8000F30E90056
:1009FA00A030EA00F822E830E8000330E900792262
:100A0A000130E8000130E9002F30EA00F822013015
:100A1A00E8000F30E900A030EA00F822862C142DF5
:100AA00021308400363083120313F0001A30D7004F
:080AB0000530D80039230800CD
:100A3400743465346D3470346534723461347434B0
:0C0A440075347234653420343D340034C5
:100A5000743465346D347034653472346134743494
:0C0A600075347234653420343D340034A9
:100A6C0061346C346F3420346D34613472346834D6
:080A7C0061346234613400347E
:100A8400743465346D347034653472346134743460
:0C0A940075347234653420343D34003475
:02400E004A2F37
:00000001FF
